{
  "contractName": "Booking",
  "abi": [
    {
      "constant": true,
      "inputs": [
        {
          "name": "",
          "type": "uint256"
        }
      ],
      "name": "customers",
      "outputs": [
        {
          "name": "",
          "type": "address"
        }
      ],
      "payable": false,
      "stateMutability": "view",
      "type": "function"
    },
    {
      "constant": false,
      "inputs": [
        {
          "name": "compId",
          "type": "uint256"
        }
      ],
      "name": "book",
      "outputs": [
        {
          "name": "",
          "type": "uint256"
        }
      ],
      "payable": false,
      "stateMutability": "nonpayable",
      "type": "function"
    },
    {
      "constant": true,
      "inputs": [],
      "name": "getCustomers",
      "outputs": [
        {
          "name": "",
          "type": "address[16]"
        }
      ],
      "payable": false,
      "stateMutability": "view",
      "type": "function"
    }
  ],
  "bytecode": "0x608060405234801561001057600080fd5b506102d8806100206000396000f300608060405260043610610057576000357c0100000000000000000000000000000000000000000000000000000000900463ffffffff1680631116fd041461005c578063c0abda2a1461009d578063f1ba71271461010a575b600080fd5b34801561006857600080fd5b506100876004803603810190808035906020019092919050505061015d565b6040518082815260200191505060405180910390f35b3480156100a957600080fd5b506100c8600480360381019080803590602001909291905050506101d2565b604051808273ffffffffffffffffffffffffffffffffffffffff1673ffffffffffffffffffffffffffffffffffffffff16815260200191505060405180910390f35b34801561011657600080fd5b5061011f610207565b6040518082601060200280838360005b8381101561014a57808201518184015260208101905061012f565b5050505090500191505060405180910390f35b60008082101580156101705750600f8211155b151561017b57600080fd5b3360008360108110151561018b57fe5b0160006101000a81548173ffffffffffffffffffffffffffffffffffffffff021916908373ffffffffffffffffffffffffffffffffffffffff160217905550819050919050565b6000816010811015156101e157fe5b016000915054906101000a900473ffffffffffffffffffffffffffffffffffffffff1681565b61020f610288565b600060108060200260405190810160405280929190826010801561027e576020028201915b8160009054906101000a900473ffffffffffffffffffffffffffffffffffffffff1673ffffffffffffffffffffffffffffffffffffffff1681526020019060010190808311610234575b5050505050905090565b610200604051908101604052806010906020820280388339808201915050905050905600a165627a7a72305820b42776f4c4819390880855f0e5555b1a933bfc957bf5e17259103bd871cd956b0029",
  "source": "pragma solidity ^0.4.17;\n\ncontract Booking{\n\t\n\taddress[16] public customers;\n\n\t//Booking a flight\n\tfunction book(uint compId) public returns (uint) {\n\t  require(compId >= 0 && compId <= 15);\n\n\t  customers[compId] = msg.sender;\n\n\t  return compId;\n\t}\n\n\t// Retrieving the customers\n\tfunction getCustomers() public view returns (address[16]) {\n\t  return customers;\n\t}\n\n}",
  "sourcePath": "/home/kt145/petshot/contracts/Booking.sol",
  "compiler": {
    "name": "solc",
    "version": "0.4.24+commit.e67f0147.Emscripten.clang"
  },
  "schemaVersion": "2.0.1",
  "updatedAt": "2018-10-14T08:39:39.658Z"
}